:200000001C224A564C201E001824427E424242007C22223C22227C001C22404040221C00BE
:2000200078242222222478007E40407840407E007E404078404040001C22404E42221C002C
:200040004242427E424242001C08080808081C000E04040404443800424448704844420090
:200060004040404040407E0042665A5A424242004262524A46424200182442424224180018
:200080007C42427C40404000182442424A241A007C42427C484442003C42403C02423C0018
:2000A0003E080808080808004242424242423C0042424224241818004242425A5A664200AA
:2000C00042422418244242002222221C080808007E02041820407E003C20202020203C008C
:2000E0000C10103C10706E003C04040404043C0000081C2A08080808000010207F201000D1
:2001000000000000000000000808080800000800242424000000000024247E247E2424009B
:20012000081E281C0A3C08000062640810264600304848304A443A000408100000000000E9
:2001400004081010100804002010080808102000082A1C3E1C2A08000008083E08080000A7
:2001600000000000000808100000007E000000000000000000181800000204081020400033
:200180003C42465A62423C000818280808083E003C42020C30407E003C42021C02423C002D
:2001A000040C14247E0404007E407804024438001C20407C42423C007E4204081010100005
:2001C0003C42423C42423C003C42423E0204380000000800000800000000080000080810EF
:2001E0000E18306030180E0000007E007E00000070180C060C1870003C42020C100010001D
:2002000000000000FF000000081C3E7F7F1C3E001010101010101010000000FF00000000A6
:200220000000FF000000000000FF0000000000000000000000FF00002020202020202020C1
:20024000040404040404040400000000E0100808080808040300000008080810E000000057
:2002600080808080808080FF80402010080402010102040810204080FF8080808080808082
:20028000FF01010101010101003C7E7E7E7E3C00000000000000FF00367F7F7F3E1C0800D4
:2002A000404040404040404000000000030408088142241818244281003C424242423C00A9
:2002C000081C2A772A0808000202020202020202081C3E7F3E1C080008080808FF08080895
:2002E000A050A050A050A05008080808080808080000013E54141400FF7F3F1F0F0703014D
:200300000000000000000000F0F0F0F0F0F0F0F000000000FFFFFFFFFF0000000000000062
:2003200000000000000000FF8080808080808080AA55AA55AA55AA550101010101010101BA
:2003400000000000AA55AA55FFFEFCF8F0E0C0800303030303030303080808080F0808083F
:20036000000000000F0F0F0F080808080F00000000000000F8080808000000000000FFFF04
:20038000000000000F08080808080808FF00000000000000FF08080808080808F8080808D0
:2003A000C0C0C0C0C0C0C0C0E0E0E0E0E0E0E0E00707070707070707FFFF00000000000007
:2003C000FFFFFF00000000000000000000FFFFFF01010101010101FF00000000F0F0F0F05D
:2003E0000F0F0F0F0000000008080808F8000000F0F0F0F000000000F0F0F0F00F0F0F0FED
:20040000E3DDB5A9B3DFE1FFE7DBBD81BDBDBDFF83DDDDC3DDDD83FFE3DDBFBFBFDDE3FF1E
:2004200087DBDDDDDDDB87FF81BFBF87BFBF81FF81BFBF87BFBFBFFFE3DDBFB1BDDDE3FF70
:20044000BDBDBD81BDBDBDFFE3F7F7F7F7F7E3FFF1FBFBFBFBBBC7FFBDBBB78FB7BBBDFFCC
:20046000BFBFBFBFBFBF81FFBD99A5A5BDBDBDFFBD9DADB5B9BDBDFFE7DBBDBDBDDBE7FF04
:2004800083BDBD83BFBFBFFFE7DBBDBDB5DBE5FF83BDBD83B7BBBDFFC3BDBFC3FDBDC3FFC4
:2004A000C1F7F7F7F7F7F7FFBDBDBDBDBDBDC3FFBDBDBDDBDBE7E7FFBDBDBDA5A599BDFFF2
:2004C000BDBDDBE7DBBDBDFFDDDDDDE3F7F7F7FF81FDFBE7DFBF81FFC3DFDFDFDFDFC3FFD0
:2004E000F3EFEFC3EF8F91FFC3FBFBFBFBFBC3FFFFF7E3D5F7F7F7F7FFFFEFDF80DFEFFF4B
:20050000FFFFFFFFFFFFFFFFF7F7F7F7FFFFF7FFDBDBDBFFFFFFFFFFDBDB81DB81DBDBFF3F
:20052000F7E1D7E3F5C3F7FFFF9D9BF7EFD9B9FFCFB7B7CFB5BBC5FFFBF7EFFFFFFFFFFFB1
:20054000FBF7EFEFEFF7FBFFDFEFF7F7F7EFDFFFF7D5E3C1E3D5F7FFFFF7F7C1F7F7FFFFB3
:20056000FFFFFFFFFFF7F7EFFFFFFF81FFFFFFFFFFFFFFFFFFE7E7FFFFFDFBF7EFDFBFFFE7
:20058000C3BDB9A59DBDC3FFF7E7D7F7F7F7C1FFC3BDFDF3CFBF81FFC3BDFDE3FDBDC3FFAD
:2005A000FBF3EBDB81FBFBFF81BF87FBFDBBC7FFE3DFBF83BDBDC3FF81BDFBF7EFEFEFFF95
:2005C000C3BDBDC3BDBDC3FFC3BDBDC1FDFBC7FFFFFFF7FFFFF7FFFFFFFFF7FFFFF7F7EF6B
:2005E000F1E7CF9FCFE7F1FFFFFF81FF81FFFFFF8FE7F3F9F3E78FFFC3BDFDF3EFFFEFFFFD
:20060000FFFFFFFF00FFFFFFF7E3C18080E3C1FFEFEFEFEFEFEFEFEFFFFFFF00FFFFFFFF32
:20062000FFFF00FFFFFFFFFFFF00FFFFFFFFFFFFFFFFFFFFFF00FFFFDFDFDFDFDFDFDFDFD7
:20064000FBFBFBFBFBFBFBFBFFFFFFFF1FEFF7F7F7F7F7FBFCFFFFFFF7F7F7EF1FFFFFFF01
:200660007F7F7F7F7F7F7F007FBFDFEFF7FBFDFEFEFDFBF7EFDFBF7F007F7F7F7F7F7F7F96
:2006800000FEFEFEFEFEFEFEFFC381818181C3FFFFFFFFFFFFFF00FFC9808080C1E3F7FF04
:2006A000BFBFBFBFBFBFBFBFFFFFFFFFFCFBF7F77EBDDBE7E7DBBD7EFFC3BDBDBDBDC3FFEF
:2006C000F7E3D588D5F7F7FFFDFDFDFDFDFDFDFDF7E3C180C1E3F7FFF7F7F7F700F7F7F7C3
:2006E0005FAF5FAF5FAF5FAFF7F7F7F7F7F7F7F7FFFFFEC1ABEBEBFF0080C0E0F0F8FCFECB
:20070000FFFFFFFFFFFFFFFF0F0F0F0F0F0F0F0FFFFFFFFF0000000000FFFFFFFFFFFFFF74
:20072000FFFFFFFFFFFFFF007F7F7F7F7F7F7F7F55AA55AA55AA55AAFEFEFEFEFEFEFEFEDC
:20074000FFFFFFFF55AA55AA000103070F1F3F7FFCFCFCFCFCFCFCFCF7F7F7F7F0F7F7F717
:20076000FFFFFFFFF0F0F0F0F7F7F7F7F0FFFFFFFFFFFFFF07F7F7F7FFFFFFFFFFFF000012
:20078000FFFFFFFFF0F7F7F7F7F7F7F700FFFFFFFFFFFFFF00F7F7F7F7F7F7F707F7F7F706
:2007A0003F3F3F3F3F3F3F3F1F1F1F1F1F1F1F1FF8F8F8F8F8F8F8F80000FFFFFFFFFFFF8F
:2007C000000000FFFFFFFFFFFFFFFFFFFF000000FEFEFEFEFEFEFE00FFFFFFFF0F0F0F0FF9
:2007E000F0F0F0F0FFFFFFFFF7F7F7F707FFFFFF0F0F0F0FFFFFFFFF0F0F0F0FF0F0F0F029
:200800001C224A564C201E00000038043C443A0040405C6242625C0000003C4240423C0000
:2008200002023A4642463A0000003C427E403C000C12107C1010100000003A46463A023CE2
:2008400040405C62424242000800180808081C0004000C04040444384040444850684400A0
:200860001808080808081C00000076494949490000005C624242420000003C4242423C00C0
:2008800000005C62625C404000003A46463A020200005C624040400000003E403C027C00A2
:2008A00010107C1010120C000000424242463A0000004242422418000000414949493600C4
:2008C000000042241824420000004242463A023C00007E0418207E003C20202020203C00A2
:2008E0000C10103C10706E003C04040404043C0000081C2A08080808000010207F201000C9
:2009000000000000000000000808080800000800242424000000000024247E247E24240093
:20092000081E281C0A3C08000062640810264600304848304A443A000408100000000000E1
:2009400004081010100804002010080808102000082A1C3E1C2A08000008083E080800009F
:2009600000000000000808100000007E00000000000000000018180000020408102040002B
:200980003C42465A62423C000818280808083E003C42020C30407E003C42021C02423C0025
:2009A000040C14247E0404007E407804024438001C20407C42423C007E42040810101000FD
:2009C0003C42423C42423C003C42423E0204380000000800000800000000080000080810E7
:2009E0000E18306030180E0000007E007E00000070180C060C1870003C42020C1000100015
:200A000000000000FF0000001824427E424242007C22223C22227C001C22404040221C001D
:200A200078242222222478007E40407840407E007E404078404040001C22404E42221C0022
:200A40004242427E424242001C08080808081C000E04040404443800424448704844420086
:200A60004040404040407E0042665A5A424242004262524A4642420018244242422418000E
:200A80007C42427C40404000182442424A241A007C42427C484442003C42403C02423C000E
:200AA0003E080808080808004242424242423C0042424224241818004242425A5A664200A0
:200AC00042422418244242002222221C080808007E02041820407E0008080808FF08080863
:200AE000A050A050A050A0500808080808080808CCCC3333CCCC3333CC663399CC663399FE
:200B00000000000000000000F0F0F0F0F0F0F0F000000000FFFFFFFFFF000000000000005A
:200B200000000000000000FF8080808080808080AA55AA55AA55AA550101010101010101B2
:200B400000000000AA55AA55993366CC993366CC0303030303030303080808080F0808083C
:200B6000000000000F0F0F0F080808080F00000000000000F8080808000000000000FFFFFC
:200B8000000000000F08080808080808FF00000000000000FF08080808080808F8080808C8
:200BA000C0C0C0C0C0C0C0C0E0E0E0E0E0E0E0E00707070707070707FFFF000000000000FF
:200BC000FFFFFF00000000000000000000FFFFFF010244485060400000000000F0F0F0F0DC
:200BE0000F0F0F0F0000000008080808F8000000F0F0F0F000000000F0F0F0F00F0F0F0FE5
:200C0000E3DDB5A9B3DFE1FFFFFFC7FBC3BBC5FFBFBFA39DBD9DA3FFFFFFC3BDBFBDC3FFCC
:200C2000FDFDC5B9BDB9C5FFFFFFC3BD81BFC3FFF3EDEF83EFEFEFFFFFFFC5B9B9C5FDC3AA
:200C4000BFBFA39DBDBDBDFFF7FFE7F7F7F7E3FFFBFFF3FBFBFBBBC7BFBFBBB7AF97BBFFAC
:200C6000E7F7F7F7F7F7E3FFFFFF89B6B6B6B6FFFFFFA39DBDBDBDFFFFFFC3BDBDBDC3FF4C
:200C8000FFFFA39D9DA3BFBFFFFFC5B9B9C5FDFDFFFFA39DBFBFBFFFFFFFC1BFC3FD83FF2A
:200CA000EFEF83EFEFEDF3FFFFFFBDBDBDB9C5FFFFFFBDBDBDDBE7FFFFFFBEB6B6B6C9FFC8
:200CC000FFFFBDDBE7DBBDFFFFFFBDBDB9C5FDC3FFFF81FBE7DF81FFC3DFDFDFDFDFC3FFAA
:200CE000F3EFEFC3EF8F91FFC3FBFBFBFBFBC3FFFFF7E3D5F7F7F7F7FFFFEFDF80DFEFFF43
:200D0000FFFFFFFFFFFFFFFFF7F7F7F7FFFFF7FFDBDBDBFFFFFFFFFFDBDB81DB81DBDBFF37
:200D2000F7E1D7E3F5C3F7FFFF9D9BF7EFD9B9FFCFB7B7CFB5BBC5FFFBF7EFFFFFFFFFFFA9
:200D4000FBF7EFEFEFF7FBFFDFEFF7F7F7EFDFFFF7D5E3C1E3D5F7FFFFF7F7C1F7F7FFFFAB
:200D6000FFFFFFFFFFF7F7EFFFFFFF81FFFFFFFFFFFFFFFFFFE7E7FFFFFDFBF7EFDFBFFFDF
:200D8000C3BDB9A59DBDC3FFF7E7D7F7F7F7C1FFC3BDFDF3CFBF81FFC3BDFDE3FDBDC3FFA5
:200DA000FBF3EBDB81FBFBFF81BF87FBFDBBC7FFE3DFBF83BDBDC3FF81BDFBF7EFEFEFFF8D
:200DC000C3BDBDC3BDBDC3FFC3BDBDC1FDFBC7FFFFFFF7FFFFF7FFFFFFFFF7FFFFF7F7EF63
:200DE000F1E7CF9FCFE7F1FFFFFF81FF81FFFFFF8FE7F3F9F3E78FFFC3BDFDF3EFFFEFFFF5
:200E0000FFFFFFFF00FFFFFFE7DBBD81BDBDBDFF83DDDDC3DDDD83FFE3DDBFBFBFDDE3FFAB
:200E200087DBDDDDDDDB87FF81BFBF87BFBF81FF81BFBF87BFBFBFFFE3DDBFB1BDDDE3FF66
:200E4000BDBDBD81BDBDBDFFE3F7F7F7F7F7E3FFF1FBFBFBFBBBC7FFBDBBB78FB7BBBDFFC2
:200E6000BFBFBFBFBFBF81FFBD99A5A5BDBDBDFFBD9DADB5B9BDBDFFE7DBBDBDBDDBE7FFFA
:200E800083BDBD83BFBFBFFFE7DBBDBDB5DBE5FF83BDBD83B7BBBDFFC3BDBFC3FDBDC3FFBA
:200EA000C1F7F7F7F7F7F7FFBDBDBDBDBDBDC3FFBDBDBDDBDBE7E7FFBDBDBDA5A599BDFFE8
:200EC000BDBDDBE7DBBDBDFFDDDDDDE3F7F7F7FF81FDFBE7DFBF81FFF7F7F7F700F7F7F7E5
:200EE0005FAF5FAF5FAF5FAFF7F7F7F7F7F7F7F73333CCCC3333CCCC3399CC663399CC660A
:200F0000FFFFFFFFFFFFFFFF0F0F0F0F0F0F0F0FFFFFFFFF0000000000FFFFFFFFFFFFFF6C
:200F2000FFFFFFFFFFFFFF007F7F7F7F7F7F7F7F55AA55AA55AA55AAFEFEFEFEFEFEFEFED4
:200F4000FFFFFFFF55AA55AA66CC993366CC9933FCFCFCFCFCFCFCFCF7F7F7F7F0F7F7F70A
:200F6000FFFFFFFFF0F0F0F0F7F7F7F7F0FFFFFFFFFFFFFF07F7F7F7FFFFFFFFFFFF00000A
:200F8000FFFFFFFFF0F7F7F7F7F7F7F700FFFFFFFFFFFFFF00F7F7F7F7F7F7F707F7F7F7FE
:200FA0003F3F3F3F3F3F3F3F1F1F1F1F1F1F1F1FF8F8F8F8F8F8F8F80000FFFFFFFFFFFF87
:200FC000000000FFFFFFFFFFFFFFFFFFFF000000FEFDBBB7AF9FBFFFFFFFFFFF0F0F0F0F6A
:200FE000F0F0F0F0FFFFFFFFF7F7F7F707FFFFFF0F0F0F0FFFFFFFFF0F0F0F0FF0F0F0F021
:00000001FF
